{
  "contractName": "Color",
  "abi": [
    {
      "inputs": [],
      "stateMutability": "nonpayable",
      "type": "constructor"
    },
    {
      "anonymous": false,
      "inputs": [
        {
          "indexed": true,
          "internalType": "address",
          "name": "owner",
          "type": "address"
        },
        {
          "indexed": true,
          "internalType": "address",
          "name": "approved",
          "type": "address"
        },
        {
          "indexed": true,
          "internalType": "uint256",
          "name": "tokenId",
          "type": "uint256"
        }
      ],
      "name": "Approval",
      "type": "event"
    },
    {
      "anonymous": false,
      "inputs": [
        {
          "indexed": true,
          "internalType": "address",
          "name": "owner",
          "type": "address"
        },
        {
          "indexed": true,
          "internalType": "address",
          "name": "operator",
          "type": "address"
        },
        {
          "indexed": false,
          "internalType": "bool",
          "name": "approved",
          "type": "bool"
        }
      ],
      "name": "ApprovalForAll",
      "type": "event"
    },
    {
      "anonymous": false,
      "inputs": [
        {
          "indexed": true,
          "internalType": "address",
          "name": "from",
          "type": "address"
        },
        {
          "indexed": true,
          "internalType": "address",
          "name": "to",
          "type": "address"
        },
        {
          "indexed": true,
          "internalType": "uint256",
          "name": "tokenId",
          "type": "uint256"
        }
      ],
      "name": "Transfer",
      "type": "event"
    },
    {
      "inputs": [
        {
          "internalType": "address",
          "name": "to",
          "type": "address"
        },
        {
          "internalType": "uint256",
          "name": "tokenId",
          "type": "uint256"
        }
      ],
      "name": "approve",
      "outputs": [],
      "stateMutability": "nonpayable",
      "type": "function"
    },
    {
      "inputs": [
        {
          "internalType": "address",
          "name": "owner",
          "type": "address"
        }
      ],
      "name": "balanceOf",
      "outputs": [
        {
          "internalType": "uint256",
          "name": "",
          "type": "uint256"
        }
      ],
      "stateMutability": "view",
      "type": "function",
      "constant": true
    },
    {
      "inputs": [
        {
          "internalType": "string",
          "name": "",
          "type": "string"
        }
      ],
      "name": "colorExist",
      "outputs": [
        {
          "internalType": "bool",
          "name": "",
          "type": "bool"
        }
      ],
      "stateMutability": "view",
      "type": "function",
      "constant": true
    },
    {
      "inputs": [
        {
          "internalType": "uint256",
          "name": "",
          "type": "uint256"
        }
      ],
      "name": "colors",
      "outputs": [
        {
          "internalType": "string",
          "name": "",
          "type": "string"
        }
      ],
      "stateMutability": "view",
      "type": "function",
      "constant": true
    },
    {
      "inputs": [
        {
          "internalType": "uint256",
          "name": "tokenId",
          "type": "uint256"
        }
      ],
      "name": "getApproved",
      "outputs": [
        {
          "internalType": "address",
          "name": "",
          "type": "address"
        }
      ],
      "stateMutability": "view",
      "type": "function",
      "constant": true
    },
    {
      "inputs": [],
      "name": "id",
      "outputs": [
        {
          "internalType": "uint256",
          "name": "",
          "type": "uint256"
        }
      ],
      "stateMutability": "view",
      "type": "function",
      "constant": true
    },
    {
      "inputs": [
        {
          "internalType": "address",
          "name": "owner",
          "type": "address"
        },
        {
          "internalType": "address",
          "name": "operator",
          "type": "address"
        }
      ],
      "name": "isApprovedForAll",
      "outputs": [
        {
          "internalType": "bool",
          "name": "",
          "type": "bool"
        }
      ],
      "stateMutability": "view",
      "type": "function",
      "constant": true
    },
    {
      "inputs": [],
      "name": "name",
      "outputs": [
        {
          "internalType": "string",
          "name": "",
          "type": "string"
        }
      ],
      "stateMutability": "view",
      "type": "function",
      "constant": true
    },
    {
      "inputs": [
        {
          "internalType": "uint256",
          "name": "tokenId",
          "type": "uint256"
        }
      ],
      "name": "ownerOf",
      "outputs": [
        {
          "internalType": "address",
          "name": "",
          "type": "address"
        }
      ],
      "stateMutability": "view",
      "type": "function",
      "constant": true
    },
    {
      "inputs": [
        {
          "internalType": "address",
          "name": "from",
          "type": "address"
        },
        {
          "internalType": "address",
          "name": "to",
          "type": "address"
        },
        {
          "internalType": "uint256",
          "name": "tokenId",
          "type": "uint256"
        }
      ],
      "name": "safeTransferFrom",
      "outputs": [],
      "stateMutability": "nonpayable",
      "type": "function"
    },
    {
      "inputs": [
        {
          "internalType": "address",
          "name": "from",
          "type": "address"
        },
        {
          "internalType": "address",
          "name": "to",
          "type": "address"
        },
        {
          "internalType": "uint256",
          "name": "tokenId",
          "type": "uint256"
        },
        {
          "internalType": "bytes",
          "name": "_data",
          "type": "bytes"
        }
      ],
      "name": "safeTransferFrom",
      "outputs": [],
      "stateMutability": "nonpayable",
      "type": "function"
    },
    {
      "inputs": [
        {
          "internalType": "address",
          "name": "operator",
          "type": "address"
        },
        {
          "internalType": "bool",
          "name": "approved",
          "type": "bool"
        }
      ],
      "name": "setApprovalForAll",
      "outputs": [],
      "stateMutability": "nonpayable",
      "type": "function"
    },
    {
      "inputs": [
        {
          "internalType": "bytes4",
          "name": "interfaceId",
          "type": "bytes4"
        }
      ],
      "name": "supportsInterface",
      "outputs": [
        {
          "internalType": "bool",
          "name": "",
          "type": "bool"
        }
      ],
      "stateMutability": "view",
      "type": "function",
      "constant": true
    },
    {
      "inputs": [],
      "name": "symbol",
      "outputs": [
        {
          "internalType": "string",
          "name": "",
          "type": "string"
        }
      ],
      "stateMutability": "view",
      "type": "function",
      "constant": true
    },
    {
      "inputs": [
        {
          "internalType": "uint256",
          "name": "tokenId",
          "type": "uint256"
        }
      ],
      "name": "tokenURI",
      "outputs": [
        {
          "internalType": "string",
          "name": "",
          "type": "string"
        }
      ],
      "stateMutability": "view",
      "type": "function",
      "constant": true
    },
    {
      "inputs": [
        {
          "internalType": "address",
          "name": "from",
          "type": "address"
        },
        {
          "internalType": "address",
          "name": "to",
          "type": "address"
        },
        {
          "internalType": "uint256",
          "name": "tokenId",
          "type": "uint256"
        }
      ],
      "name": "transferFrom",
      "outputs": [],
      "stateMutability": "nonpayable",
      "type": "function"
    },
    {
      "inputs": [
        {
          "internalType": "string",
          "name": "_color",
          "type": "string"
        }
      ],
      "name": "mint",
      "outputs": [],
      "stateMutability": "nonpayable",
      "type": "function"
    }
  ],
  "bytecode": "0x60806040523480156200001157600080fd5b506040518060400160405280600581526020017f436f6c6f720000000000000000000000000000000000000000000000000000008152506040518060400160405280600581526020017f434f4c4f52000000000000000000000000000000000000000000000000000000815250816000908051906020019062000096929190620000b8565b508060019080519060200190620000af929190620000b8565b505050620001cd565b828054620000c69062000168565b90600052602060002090601f016020900481019282620000ea576000855562000136565b82601f106200010557805160ff191683800117855562000136565b8280016001018555821562000136579182015b828111156200013557825182559160200191906001019062000118565b5b50905062000145919062000149565b5090565b5b80821115620001645760008160009055506001016200014a565b5090565b600060028204905060018216806200018157607f821691505b602082108114156200019857620001976200019e565b5b50919050565b7f4e487b7100000000000000000000000000000000000000000000000000000000600052602260045260246000fd5b612b7280620001dd6000396000f3fe608060405234801561001057600080fd5b506004361061010b5760003560e01c806395d89b41116100a2578063b88d4fde11610071578063b88d4fde146102ca578063bd11f69d146102e6578063c87b56dd14610316578063d85d3d2714610346578063e985e9c5146103625761010b565b806395d89b41146102425780639c2a042014610260578063a22cb46514610290578063af640d0f146102ac5761010b565b806323b872dd116100de57806323b872dd146101aa57806342842e0e146101c65780636352211e146101e257806370a08231146102125761010b565b806301ffc9a71461011057806306fdde0314610140578063081812fc1461015e578063095ea7b31461018e575b600080fd5b61012a60048036038101906101259190611c02565b610392565b6040516101379190612051565b60405180910390f35b610148610474565b604051610155919061206c565b60405180910390f35b61017860048036038101906101739190611ca5565b610506565b6040516101859190611fea565b60405180910390f35b6101a860048036038101906101a39190611bc2565b61058b565b005b6101c460048036038101906101bf9190611aac565b6106a3565b005b6101e060048036038101906101db9190611aac565b610703565b005b6101fc60048036038101906101f79190611ca5565b610723565b6040516102099190611fea565b60405180910390f35b61022c60048036038101906102279190611a3f565b6107d5565b604051610239919061226e565b60405180910390f35b61024a61088d565b604051610257919061206c565b60405180910390f35b61027a60048036038101906102759190611c5c565b61091f565b6040516102879190612051565b60405180910390f35b6102aa60048036038101906102a59190611b82565b610955565b005b6102b4610ad6565b6040516102c1919061226e565b60405180910390f35b6102e460048036038101906102df9190611aff565b610adc565b005b61030060048036038101906102fb9190611ca5565b610b3e565b60405161030d919061206c565b60405180910390f35b610330600480360381019061032b9190611ca5565b610bea565b60405161033d919061206c565b60405180910390f35b610360600480360381019061035b9190611c5c565b610c91565b005b61037c60048036038101906103779190611a6c565b610d9d565b6040516103899190612051565b60405180910390f35b60007f80ac58cd000000000000000000000000000000000000000000000000000000007bffffffffffffffffffffffffffffffffffffffffffffffffffffffff1916827bffffffffffffffffffffffffffffffffffffffffffffffffffffffff1916148061045d57507f5b5e139f000000000000000000000000000000000000000000000000000000007bffffffffffffffffffffffffffffffffffffffffffffffffffffffff1916827bffffffffffffffffffffffffffffffffffffffffffffffffffffffff1916145b8061046d575061046c82610e31565b5b9050919050565b606060008054610483906124c4565b80601f01602080910402602001604051908101604052809291908181526020018280546104af906124c4565b80156104fc5780601f106104d1576101008083540402835291602001916104fc565b820191906000526020600020905b8154815290600101906020018083116104df57829003601f168201915b5050505050905090565b600061051182610e9b565b610550576040517f08c379a0000000000000000000000000000000000000000000000000000000008152600401610547906121ae565b60405180910390fd5b6004600083815260200190815260200160002060009054906101000a900473ffffffffffffffffffffffffffffffffffffffff169050919050565b600061059682610723565b90508073ffffffffffffffffffffffffffffffffffffffff168373ffffffffffffffffffffffffffffffffffffffff161415610607576040517f08c379a00000000000000000000000000000000000000000000000000000000081526004016105fe9061220e565b60405180910390fd5b8073ffffffffffffffffffffffffffffffffffffffff16610626610f07565b73ffffffffffffffffffffffffffffffffffffffff16148061065557506106548161064f610f07565b610d9d565b5b610694576040517f08c379a000000000000000000000000000000000000000000000000000000000815260040161068b9061212e565b60405180910390fd5b61069e8383610f0f565b505050565b6106b46106ae610f07565b82610fc8565b6106f3576040517f08c379a00000000000000000000000000000000000000000000000000000000081526004016106ea9061222e565b60405180910390fd5b6106fe8383836110a6565b505050565b61071e83838360405180602001604052806000815250610adc565b505050565b6000806002600084815260200190815260200160002060009054906101000a900473ffffffffffffffffffffffffffffffffffffffff169050600073ffffffffffffffffffffffffffffffffffffffff168173ffffffffffffffffffffffffffffffffffffffff1614156107cc576040517f08c379a00000000000000000000000000000000000000000000000000000000081526004016107c39061216e565b60405180910390fd5b80915050919050565b60008073ffffffffffffffffffffffffffffffffffffffff168273ffffffffffffffffffffffffffffffffffffffff161415610846576040517f08c379a000000000000000000000000000000000000000000000000000000000815260040161083d9061214e565b60405180910390fd5b600360008373ffffffffffffffffffffffffffffffffffffffff1673ffffffffffffffffffffffffffffffffffffffff168152602001908152602001600020549050919050565b60606001805461089c906124c4565b80601f01602080910402602001604051908101604052809291908181526020018280546108c8906124c4565b80156109155780601f106108ea57610100808354040283529160200191610915565b820191906000526020600020905b8154815290600101906020018083116108f857829003601f168201915b5050505050905090565b6008818051602081018201805184825260208301602085012081835280955050505050506000915054906101000a900460ff1681565b61095d610f07565b73ffffffffffffffffffffffffffffffffffffffff168273ffffffffffffffffffffffffffffffffffffffff1614156109cb576040517f08c379a00000000000000000000000000000000000000000000000000000000081526004016109c2906120ee565b60405180910390fd5b80600560006109d8610f07565b73ffffffffffffffffffffffffffffffffffffffff1673ffffffffffffffffffffffffffffffffffffffff16815260200190815260200160002060008473ffffffffffffffffffffffffffffffffffffffff1673ffffffffffffffffffffffffffffffffffffffff16815260200190815260200160002060006101000a81548160ff0219169083151502179055508173ffffffffffffffffffffffffffffffffffffffff16610a85610f07565b73ffffffffffffffffffffffffffffffffffffffff167f17307eab39ab6107e8899845ad3d59bd9653f200f220920489ca2b5937696c3183604051610aca9190612051565b60405180910390a35050565b60075481565b610aed610ae7610f07565b83610fc8565b610b2c576040517f08c379a0000000000000000000000000000000000000000000000000000000008152600401610b239061222e565b60405180910390fd5b610b3884848484611302565b50505050565b60068181548110610b4e57600080fd5b906000526020600020016000915090508054610b69906124c4565b80601f0160208091040260200160405190810160405280929190818152602001828054610b95906124c4565b8015610be25780601f10610bb757610100808354040283529160200191610be2565b820191906000526020600020905b815481529060010190602001808311610bc557829003601f168201915b505050505081565b6060610bf582610e9b565b610c34576040517f08c379a0000000000000000000000000000000000000000000000000000000008152600401610c2b906121ee565b60405180910390fd5b6000610c3e61135e565b90506000815111610c5e5760405180602001604052806000815250610c89565b80610c6884611375565b604051602001610c79929190611fc6565b6040516020818303038152906040525b915050919050565b60001515600882604051610ca59190611faf565b908152602001604051809103902060009054906101000a900460ff16151514610d03576040517f08c379a0000000000000000000000000000000000000000000000000000000008152600401610cfa9061224e565b60405180910390fd5b600681908060018154018082558091505060019003906000526020600020016000909190919091509080519060200190610d3e929190611853565b5060076000815480929190610d5290612527565b9190505550610d63336007546114d6565b6001600882604051610d759190611faf565b908152602001604051809103902060006101000a81548160ff02191690831515021790555050565b6000600560008473ffffffffffffffffffffffffffffffffffffffff1673ffffffffffffffffffffffffffffffffffffffff16815260200190815260200160002060008373ffffffffffffffffffffffffffffffffffffffff1673ffffffffffffffffffffffffffffffffffffffff16815260200190815260200160002060009054906101000a900460ff16905092915050565b60007f01ffc9a7000000000000000000000000000000000000000000000000000000007bffffffffffffffffffffffffffffffffffffffffffffffffffffffff1916827bffffffffffffffffffffffffffffffffffffffffffffffffffffffff1916149050919050565b60008073ffffffffffffffffffffffffffffffffffffffff166002600084815260200190815260200160002060009054906101000a900473ffffffffffffffffffffffffffffffffffffffff1673ffffffffffffffffffffffffffffffffffffffff1614159050919050565b600033905090565b816004600083815260200190815260200160002060006101000a81548173ffffffffffffffffffffffffffffffffffffffff021916908373ffffffffffffffffffffffffffffffffffffffff160217905550808273ffffffffffffffffffffffffffffffffffffffff16610f8283610723565b73ffffffffffffffffffffffffffffffffffffffff167f8c5be1e5ebec7d5bd14f71427d1e84f3dd0314c0f7b2291e5b200ac8c7c3b92560405160405180910390a45050565b6000610fd382610e9b565b611012576040517f08c379a00000000000000000000000000000000000000000000000000000000081526004016110099061210e565b60405180910390fd5b600061101d83610723565b90508073ffffffffffffffffffffffffffffffffffffffff168473ffffffffffffffffffffffffffffffffffffffff16148061108c57508373ffffffffffffffffffffffffffffffffffffffff1661107484610506565b73ffffffffffffffffffffffffffffffffffffffff16145b8061109d575061109c8185610d9d565b5b91505092915050565b8273ffffffffffffffffffffffffffffffffffffffff166110c682610723565b73ffffffffffffffffffffffffffffffffffffffff161461111c576040517f08c379a0000000000000000000000000000000000000000000000000000000008152600401611113906121ce565b60405180910390fd5b600073ffffffffffffffffffffffffffffffffffffffff168273ffffffffffffffffffffffffffffffffffffffff16141561118c576040517f08c379a0000000000000000000000000000000000000000000000000000000008152600401611183906120ce565b60405180910390fd5b6111978383836116a4565b6111a2600082610f0f565b6001600360008573ffffffffffffffffffffffffffffffffffffffff1673ffffffffffffffffffffffffffffffffffffffff16815260200190815260200160002060008282546111f291906123da565b925050819055506001600360008473ffffffffffffffffffffffffffffffffffffffff1673ffffffffffffffffffffffffffffffffffffffff16815260200190815260200160002060008282546112499190612353565b92505081905550816002600083815260200190815260200160002060006101000a81548173ffffffffffffffffffffffffffffffffffffffff021916908373ffffffffffffffffffffffffffffffffffffffff160217905550808273ffffffffffffffffffffffffffffffffffffffff168473ffffffffffffffffffffffffffffffffffffffff167fddf252ad1be2c89b69c2b068fc378daa952ba7f163c4a11628f55a4df523b3ef60405160405180910390a4505050565b61130d8484846110a6565b611319848484846116a9565b611358576040517f08c379a000000000000000000000000000000000000000000000000000000000815260040161134f9061208e565b60405180910390fd5b50505050565b606060405180602001604052806000815250905090565b606060008214156113bd576040518060400160405280600181526020017f300000000000000000000000000000000000000000000000000000000000000081525090506114d1565b600082905060005b600082146113ef5780806113d890612527565b915050600a826113e891906123a9565b91506113c5565b60008167ffffffffffffffff81111561140b5761140a61265d565b5b6040519080825280601f01601f19166020018201604052801561143d5781602001600182028036833780820191505090505b5090505b600085146114ca5760018261145691906123da565b9150600a856114659190612570565b60306114719190612353565b60f81b8183815181106114875761148661262e565b5b60200101907effffffffffffffffffffffffffffffffffffffffffffffffffffffffffffff1916908160001a905350600a856114c391906123a9565b9450611441565b8093505050505b919050565b600073ffffffffffffffffffffffffffffffffffffffff168273ffffffffffffffffffffffffffffffffffffffff161415611546576040517f08c379a000000000000000000000000000000000000000000000000000000000815260040161153d9061218e565b60405180910390fd5b61154f81610e9b565b1561158f576040517f08c379a0000000000000000000000000000000000000000000000000000000008152600401611586906120ae565b60405180910390fd5b61159b600083836116a4565b6001600360008473ffffffffffffffffffffffffffffffffffffffff1673ffffffffffffffffffffffffffffffffffffffff16815260200190815260200160002060008282546115eb9190612353565b92505081905550816002600083815260200190815260200160002060006101000a81548173ffffffffffffffffffffffffffffffffffffffff021916908373ffffffffffffffffffffffffffffffffffffffff160217905550808273ffffffffffffffffffffffffffffffffffffffff16600073ffffffffffffffffffffffffffffffffffffffff167fddf252ad1be2c89b69c2b068fc378daa952ba7f163c4a11628f55a4df523b3ef60405160405180910390a45050565b505050565b60006116ca8473ffffffffffffffffffffffffffffffffffffffff16611840565b15611833578373ffffffffffffffffffffffffffffffffffffffff1663150b7a026116f3610f07565b8786866040518563ffffffff1660e01b81526004016117159493929190612005565b602060405180830381600087803b15801561172f57600080fd5b505af192505050801561176057506040513d601f19601f8201168201806040525081019061175d9190611c2f565b60015b6117e3573d8060008114611790576040519150601f19603f3d011682016040523d82523d6000602084013e611795565b606091505b506000815114156117db576040517f08c379a00000000000000000000000000000000000000000000000000000000081526004016117d29061208e565b60405180910390fd5b805181602001fd5b63150b7a0260e01b7bffffffffffffffffffffffffffffffffffffffffffffffffffffffff1916817bffffffffffffffffffffffffffffffffffffffffffffffffffffffff191614915050611838565b600190505b949350505050565b600080823b905060008111915050919050565b82805461185f906124c4565b90600052602060002090601f01602090048101928261188157600085556118c8565b82601f1061189a57805160ff19168380011785556118c8565b828001600101855582156118c8579182015b828111156118c75782518255916020019190600101906118ac565b5b5090506118d591906118d9565b5090565b5b808211156118f25760008160009055506001016118da565b5090565b6000611909611904846122ae565b612289565b90508281526020810184848401111561192557611924612691565b5b611930848285612482565b509392505050565b600061194b611946846122df565b612289565b90508281526020810184848401111561196757611966612691565b5b611972848285612482565b509392505050565b60008135905061198981612ae0565b92915050565b60008135905061199e81612af7565b92915050565b6000813590506119b381612b0e565b92915050565b6000815190506119c881612b0e565b92915050565b600082601f8301126119e3576119e261268c565b5b81356119f38482602086016118f6565b91505092915050565b600082601f830112611a1157611a1061268c565b5b8135611a21848260208601611938565b91505092915050565b600081359050611a3981612b25565b92915050565b600060208284031215611a5557611a5461269b565b5b6000611a638482850161197a565b91505092915050565b60008060408385031215611a8357611a8261269b565b5b6000611a918582860161197a565b9250506020611aa28582860161197a565b9150509250929050565b600080600060608486031215611ac557611ac461269b565b5b6000611ad38682870161197a565b9350506020611ae48682870161197a565b9250506040611af586828701611a2a565b9150509250925092565b60008060008060808587031215611b1957611b1861269b565b5b6000611b278782880161197a565b9450506020611b388782880161197a565b9350506040611b4987828801611a2a565b925050606085013567ffffffffffffffff811115611b6a57611b69612696565b5b611b76878288016119ce565b91505092959194509250565b60008060408385031215611b9957611b9861269b565b5b6000611ba78582860161197a565b9250506020611bb88582860161198f565b9150509250929050565b60008060408385031215611bd957611bd861269b565b5b6000611be78582860161197a565b9250506020611bf885828601611a2a565b9150509250929050565b600060208284031215611c1857611c1761269b565b5b6000611c26848285016119a4565b91505092915050565b600060208284031215611c4557611c4461269b565b5b6000611c53848285016119b9565b91505092915050565b600060208284031215611c7257611c7161269b565b5b600082013567ffffffffffffffff811115611c9057611c8f612696565b5b611c9c848285016119fc565b91505092915050565b600060208284031215611cbb57611cba61269b565b5b6000611cc984828501611a2a565b91505092915050565b611cdb8161240e565b82525050565b611cea81612420565b82525050565b6000611cfb82612310565b611d058185612326565b9350611d15818560208601612491565b611d1e816126a0565b840191505092915050565b6000611d348261231b565b611d3e8185612337565b9350611d4e818560208601612491565b611d57816126a0565b840191505092915050565b6000611d6d8261231b565b611d778185612348565b9350611d87818560208601612491565b80840191505092915050565b6000611da0603283612337565b9150611dab826126b1565b604082019050919050565b6000611dc3601c83612337565b9150611dce82612700565b602082019050919050565b6000611de6602483612337565b9150611df182612729565b604082019050919050565b6000611e09601983612337565b9150611e1482612778565b602082019050919050565b6000611e2c602c83612337565b9150611e37826127a1565b604082019050919050565b6000611e4f603883612337565b9150611e5a826127f0565b604082019050919050565b6000611e72602a83612337565b9150611e7d8261283f565b604082019050919050565b6000611e95602983612337565b9150611ea08261288e565b604082019050919050565b6000611eb8602083612337565b9150611ec3826128dd565b602082019050919050565b6000611edb602c83612337565b9150611ee682612906565b604082019050919050565b6000611efe602983612337565b9150611f0982612955565b604082019050919050565b6000611f21602f83612337565b9150611f2c826129a4565b604082019050919050565b6000611f44602183612337565b9150611f4f826129f3565b604082019050919050565b6000611f67603183612337565b9150611f7282612a42565b604082019050919050565b6000611f8a602583612337565b9150611f9582612a91565b604082019050919050565b611fa981612478565b82525050565b6000611fbb8284611d62565b915081905092915050565b6000611fd28285611d62565b9150611fde8284611d62565b91508190509392505050565b6000602082019050611fff6000830184611cd2565b92915050565b600060808201905061201a6000830187611cd2565b6120276020830186611cd2565b6120346040830185611fa0565b81810360608301526120468184611cf0565b905095945050505050565b60006020820190506120666000830184611ce1565b92915050565b600060208201905081810360008301526120868184611d29565b905092915050565b600060208201905081810360008301526120a781611d93565b9050919050565b600060208201905081810360008301526120c781611db6565b9050919050565b600060208201905081810360008301526120e781611dd9565b9050919050565b6000602082019050818103600083015261210781611dfc565b9050919050565b6000602082019050818103600083015261212781611e1f565b9050919050565b6000602082019050818103600083015261214781611e42565b9050919050565b6000602082019050818103600083015261216781611e65565b9050919050565b6000602082019050818103600083015261218781611e88565b9050919050565b600060208201905081810360008301526121a781611eab565b9050919050565b600060208201905081810360008301526121c781611ece565b9050919050565b600060208201905081810360008301526121e781611ef1565b9050919050565b6000602082019050818103600083015261220781611f14565b9050919050565b6000602082019050818103600083015261222781611f37565b9050919050565b6000602082019050818103600083015261224781611f5a565b9050919050565b6000602082019050818103600083015261226781611f7d565b9050919050565b60006020820190506122836000830184611fa0565b92915050565b60006122936122a4565b905061229f82826124f6565b919050565b6000604051905090565b600067ffffffffffffffff8211156122c9576122c861265d565b5b6122d2826126a0565b9050602081019050919050565b600067ffffffffffffffff8211156122fa576122f961265d565b5b612303826126a0565b9050602081019050919050565b600081519050919050565b600081519050919050565b600082825260208201905092915050565b600082825260208201905092915050565b600081905092915050565b600061235e82612478565b915061236983612478565b9250827fffffffffffffffffffffffffffffffffffffffffffffffffffffffffffffffff0382111561239e5761239d6125a1565b5b828201905092915050565b60006123b482612478565b91506123bf83612478565b9250826123cf576123ce6125d0565b5b828204905092915050565b60006123e582612478565b91506123f083612478565b925082821015612403576124026125a1565b5b828203905092915050565b600061241982612458565b9050919050565b60008115159050919050565b60007fffffffff0000000000000000000000000000000000000000000000000000000082169050919050565b600073ffffffffffffffffffffffffffffffffffffffff82169050919050565b6000819050919050565b82818337600083830152505050565b60005b838110156124af578082015181840152602081019050612494565b838111156124be576000848401525b50505050565b600060028204905060018216806124dc57607f821691505b602082108114156124f0576124ef6125ff565b5b50919050565b6124ff826126a0565b810181811067ffffffffffffffff8211171561251e5761251d61265d565b5b80604052505050565b600061253282612478565b91507fffffffffffffffffffffffffffffffffffffffffffffffffffffffffffffffff821415612565576125646125a1565b5b600182019050919050565b600061257b82612478565b915061258683612478565b925082612596576125956125d0565b5b828206905092915050565b7f4e487b7100000000000000000000000000000000000000000000000000000000600052601160045260246000fd5b7f4e487b7100000000000000000000000000000000000000000000000000000000600052601260045260246000fd5b7f4e487b7100000000000000000000000000000000000000000000000000000000600052602260045260246000fd5b7f4e487b7100000000000000000000000000000000000000000000000000000000600052603260045260246000fd5b7f4e487b7100000000000000000000000000000000000000000000000000000000600052604160045260246000fd5b600080fd5b600080fd5b600080fd5b600080fd5b6000601f19601f8301169050919050565b7f4552433732313a207472616e7366657220746f206e6f6e20455243373231526560008201527f63656976657220696d706c656d656e7465720000000000000000000000000000602082015250565b7f4552433732313a20746f6b656e20616c7265616479206d696e74656400000000600082015250565b7f4552433732313a207472616e7366657220746f20746865207a65726f2061646460008201527f7265737300000000000000000000000000000000000000000000000000000000602082015250565b7f4552433732313a20617070726f766520746f2063616c6c657200000000000000600082015250565b7f4552433732313a206f70657261746f7220717565727920666f72206e6f6e657860008201527f697374656e7420746f6b656e0000000000000000000000000000000000000000602082015250565b7f4552433732313a20617070726f76652063616c6c6572206973206e6f74206f7760008201527f6e6572206e6f7220617070726f76656420666f7220616c6c0000000000000000602082015250565b7f4552433732313a2062616c616e636520717565727920666f7220746865207a6560008201527f726f206164647265737300000000000000000000000000000000000000000000602082015250565b7f4552433732313a206f776e657220717565727920666f72206e6f6e657869737460008201527f656e7420746f6b656e0000000000000000000000000000000000000000000000602082015250565b7f4552433732313a206d696e7420746f20746865207a65726f2061646472657373600082015250565b7f4552433732313a20617070726f76656420717565727920666f72206e6f6e657860008201527f697374656e7420746f6b656e0000000000000000000000000000000000000000602082015250565b7f4552433732313a207472616e73666572206f6620746f6b656e2074686174206960008201527f73206e6f74206f776e0000000000000000000000000000000000000000000000602082015250565b7f4552433732314d657461646174613a2055524920717565727920666f72206e6f60008201527f6e6578697374656e7420746f6b656e0000000000000000000000000000000000602082015250565b7f4552433732313a20617070726f76616c20746f2063757272656e74206f776e6560008201527f7200000000000000000000000000000000000000000000000000000000000000602082015250565b7f4552433732313a207472616e736665722063616c6c6572206973206e6f74206f60008201527f776e6572206e6f7220617070726f766564000000000000000000000000000000602082015250565b7f5468697320636f6c6f75722068617320616c7265616479206265656e2063726560008201527f6174656421000000000000000000000000000000000000000000000000000000602082015250565b612ae98161240e565b8114612af457600080fd5b50565b612b0081612420565b8114612b0b57600080fd5b50565b612b178161242c565b8114612b2257600080fd5b50565b612b2e81612478565b8114612b3957600080fd5b5056fea26469706673582212204fb313ec7d67454077cb1a41478ca5419ac4f9f9808f77f3d7d5c65a2210ebb164736f6c63430008060033",
  "immutableReferences": {},
  "source": "// SPDX-License-Identifier: MIT\npragma solidity ^0.8.0;\n\nimport \"@openzeppelin/contracts/token/ERC721/ERC721.sol\";\n\ncontract Color is ERC721 {\n    \n    string[] public colors;\n    uint public id;\n    mapping(string => bool) public colorExist;\n\n    constructor() ERC721(\"Color\", \"COLOR\") {\n        \n    }\n\n    function mint(string memory _color) public {\n        // require a unique color\n        require(colorExist[_color] == false, \"This colour has already been created!\");\n        \n        // color - add it to the array\n        colors.push(_color);\n        \n        // call the mint function in ERC721\n        id++;            // Note: the id will be counted from 1,2,3..., not 0,1,2... \n        _mint(msg.sender, id);\n        \n        // color - track it, see if it has already been created\n        colorExist[_color] = true;\n        \n    }\n\n}",
  "sourcePath": "/Users/tim/_Dapp_ex/DappU7_NFT/src/contracts/Color.sol",
  "compiler": {
    "name": "solc",
    "version": "0.8.6+commit.11564f7e.Emscripten.clang"
  },
  "schemaVersion": "3.4.1",
  "updatedAt": "2021-07-20T17:32:38.910Z",
  "networkType": "ethereum",
  "devdoc": {
    "kind": "dev",
    "methods": {
      "approve(address,uint256)": {
        "details": "See {IERC721-approve}."
      },
      "balanceOf(address)": {
        "details": "See {IERC721-balanceOf}."
      },
      "getApproved(uint256)": {
        "details": "See {IERC721-getApproved}."
      },
      "isApprovedForAll(address,address)": {
        "details": "See {IERC721-isApprovedForAll}."
      },
      "name()": {
        "details": "See {IERC721Metadata-name}."
      },
      "ownerOf(uint256)": {
        "details": "See {IERC721-ownerOf}."
      },
      "safeTransferFrom(address,address,uint256)": {
        "details": "See {IERC721-safeTransferFrom}."
      },
      "safeTransferFrom(address,address,uint256,bytes)": {
        "details": "See {IERC721-safeTransferFrom}."
      },
      "setApprovalForAll(address,bool)": {
        "details": "See {IERC721-setApprovalForAll}."
      },
      "supportsInterface(bytes4)": {
        "details": "See {IERC165-supportsInterface}."
      },
      "symbol()": {
        "details": "See {IERC721Metadata-symbol}."
      },
      "tokenURI(uint256)": {
        "details": "See {IERC721Metadata-tokenURI}."
      },
      "transferFrom(address,address,uint256)": {
        "details": "See {IERC721-transferFrom}."
      }
    },
    "version": 1
  },
  "userdoc": {
    "kind": "user",
    "methods": {},
    "version": 1
  }
}